{
  "_format": "hh-sol-artifact-1",
  "contractName": "ProChain",
  "sourceName": "contracts/ProChain.sol",
  "abi": [
    {
      "inputs": [],
      "stateMutability": "nonpayable",
      "type": "constructor"
    },
    {
      "anonymous": false,
      "inputs": [
        {
          "indexed": true,
          "internalType": "address",
          "name": "owner",
          "type": "address"
        },
        {
          "indexed": true,
          "internalType": "address",
          "name": "approved",
          "type": "address"
        },
        {
          "indexed": true,
          "internalType": "uint256",
          "name": "tokenId",
          "type": "uint256"
        }
      ],
      "name": "Approval",
      "type": "event"
    },
    {
      "anonymous": false,
      "inputs": [
        {
          "indexed": true,
          "internalType": "address",
          "name": "owner",
          "type": "address"
        },
        {
          "indexed": true,
          "internalType": "address",
          "name": "operator",
          "type": "address"
        },
        {
          "indexed": false,
          "internalType": "bool",
          "name": "approved",
          "type": "bool"
        }
      ],
      "name": "ApprovalForAll",
      "type": "event"
    },
    {
      "anonymous": false,
      "inputs": [
        {
          "indexed": false,
          "internalType": "uint256",
          "name": "tokenId",
          "type": "uint256"
        },
        {
          "indexed": false,
          "internalType": "uint256",
          "name": "tokenPrice",
          "type": "uint256"
        },
        {
          "indexed": true,
          "internalType": "address",
          "name": "seller",
          "type": "address"
        },
        {
          "indexed": true,
          "internalType": "address",
          "name": "owner",
          "type": "address"
        },
        {
          "indexed": false,
          "internalType": "bool",
          "name": "sold",
          "type": "bool"
        }
      ],
      "name": "CreateTokenItemEvent",
      "type": "event"
    },
    {
      "anonymous": false,
      "inputs": [
        {
          "indexed": true,
          "internalType": "address",
          "name": "minter",
          "type": "address"
        },
        {
          "indexed": false,
          "internalType": "uint256",
          "name": "tokenId",
          "type": "uint256"
        }
      ],
      "name": "MintNewTokenEvent",
      "type": "event"
    },
    {
      "anonymous": false,
      "inputs": [
        {
          "indexed": true,
          "internalType": "address",
          "name": "from",
          "type": "address"
        },
        {
          "indexed": true,
          "internalType": "address",
          "name": "to",
          "type": "address"
        },
        {
          "indexed": true,
          "internalType": "uint256",
          "name": "tokenId",
          "type": "uint256"
        }
      ],
      "name": "Transfer",
      "type": "event"
    },
    {
      "inputs": [
        {
          "internalType": "address",
          "name": "to",
          "type": "address"
        },
        {
          "internalType": "uint256",
          "name": "tokenId",
          "type": "uint256"
        }
      ],
      "name": "approve",
      "outputs": [],
      "stateMutability": "nonpayable",
      "type": "function"
    },
    {
      "inputs": [
        {
          "internalType": "address",
          "name": "owner",
          "type": "address"
        }
      ],
      "name": "balanceOf",
      "outputs": [
        {
          "internalType": "uint256",
          "name": "",
          "type": "uint256"
        }
      ],
      "stateMutability": "view",
      "type": "function"
    },
    {
      "inputs": [],
      "name": "fetchAllTokenItems",
      "outputs": [
        {
          "components": [
            {
              "internalType": "uint256",
              "name": "tokenId",
              "type": "uint256"
            },
            {
              "internalType": "uint256",
              "name": "tokenPrice",
              "type": "uint256"
            },
            {
              "internalType": "address payable",
              "name": "seller",
              "type": "address"
            },
            {
              "internalType": "address payable",
              "name": "owner",
              "type": "address"
            },
            {
              "internalType": "bool",
              "name": "sold",
              "type": "bool"
            }
          ],
          "internalType": "struct ProChain.TokenItem[]",
          "name": "",
          "type": "tuple[]"
        }
      ],
      "stateMutability": "view",
      "type": "function"
    },
    {
      "inputs": [
        {
          "internalType": "uint256",
          "name": "tokenId",
          "type": "uint256"
        }
      ],
      "name": "getApproved",
      "outputs": [
        {
          "internalType": "address",
          "name": "",
          "type": "address"
        }
      ],
      "stateMutability": "view",
      "type": "function"
    },
    {
      "inputs": [
        {
          "internalType": "address",
          "name": "owner",
          "type": "address"
        },
        {
          "internalType": "address",
          "name": "operator",
          "type": "address"
        }
      ],
      "name": "isApprovedForAll",
      "outputs": [
        {
          "internalType": "bool",
          "name": "",
          "type": "bool"
        }
      ],
      "stateMutability": "view",
      "type": "function"
    },
    {
      "inputs": [
        {
          "internalType": "string",
          "name": "_tokenUri",
          "type": "string"
        },
        {
          "internalType": "uint256",
          "name": "_tokenPrice",
          "type": "uint256"
        }
      ],
      "name": "mint",
      "outputs": [],
      "stateMutability": "payable",
      "type": "function"
    },
    {
      "inputs": [],
      "name": "name",
      "outputs": [
        {
          "internalType": "string",
          "name": "",
          "type": "string"
        }
      ],
      "stateMutability": "view",
      "type": "function"
    },
    {
      "inputs": [
        {
          "internalType": "uint256",
          "name": "tokenId",
          "type": "uint256"
        }
      ],
      "name": "ownerOf",
      "outputs": [
        {
          "internalType": "address",
          "name": "",
          "type": "address"
        }
      ],
      "stateMutability": "view",
      "type": "function"
    },
    {
      "inputs": [
        {
          "internalType": "address",
          "name": "from",
          "type": "address"
        },
        {
          "internalType": "address",
          "name": "to",
          "type": "address"
        },
        {
          "internalType": "uint256",
          "name": "tokenId",
          "type": "uint256"
        }
      ],
      "name": "safeTransferFrom",
      "outputs": [],
      "stateMutability": "nonpayable",
      "type": "function"
    },
    {
      "inputs": [
        {
          "internalType": "address",
          "name": "from",
          "type": "address"
        },
        {
          "internalType": "address",
          "name": "to",
          "type": "address"
        },
        {
          "internalType": "uint256",
          "name": "tokenId",
          "type": "uint256"
        },
        {
          "internalType": "bytes",
          "name": "_data",
          "type": "bytes"
        }
      ],
      "name": "safeTransferFrom",
      "outputs": [],
      "stateMutability": "nonpayable",
      "type": "function"
    },
    {
      "inputs": [
        {
          "internalType": "address",
          "name": "operator",
          "type": "address"
        },
        {
          "internalType": "bool",
          "name": "approved",
          "type": "bool"
        }
      ],
      "name": "setApprovalForAll",
      "outputs": [],
      "stateMutability": "nonpayable",
      "type": "function"
    },
    {
      "inputs": [
        {
          "internalType": "bytes4",
          "name": "interfaceId",
          "type": "bytes4"
        }
      ],
      "name": "supportsInterface",
      "outputs": [
        {
          "internalType": "bool",
          "name": "",
          "type": "bool"
        }
      ],
      "stateMutability": "view",
      "type": "function"
    },
    {
      "inputs": [],
      "name": "symbol",
      "outputs": [
        {
          "internalType": "string",
          "name": "",
          "type": "string"
        }
      ],
      "stateMutability": "view",
      "type": "function"
    },
    {
      "inputs": [],
      "name": "tokenId",
      "outputs": [
        {
          "internalType": "uint256",
          "name": "_value",
          "type": "uint256"
        }
      ],
      "stateMutability": "view",
      "type": "function"
    },
    {
      "inputs": [
        {
          "internalType": "uint256",
          "name": "",
          "type": "uint256"
        }
      ],
      "name": "tokenItems",
      "outputs": [
        {
          "internalType": "uint256",
          "name": "tokenId",
          "type": "uint256"
        },
        {
          "internalType": "uint256",
          "name": "tokenPrice",
          "type": "uint256"
        },
        {
          "internalType": "address payable",
          "name": "seller",
          "type": "address"
        },
        {
          "internalType": "address payable",
          "name": "owner",
          "type": "address"
        },
        {
          "internalType": "bool",
          "name": "sold",
          "type": "bool"
        }
      ],
      "stateMutability": "view",
      "type": "function"
    },
    {
      "inputs": [],
      "name": "tokenSold",
      "outputs": [
        {
          "internalType": "uint256",
          "name": "_value",
          "type": "uint256"
        }
      ],
      "stateMutability": "view",
      "type": "function"
    },
    {
      "inputs": [
        {
          "internalType": "uint256",
          "name": "tokenId",
          "type": "uint256"
        }
      ],
      "name": "tokenURI",
      "outputs": [
        {
          "internalType": "string",
          "name": "",
          "type": "string"
        }
      ],
      "stateMutability": "view",
      "type": "function"
    },
    {
      "inputs": [
        {
          "internalType": "address",
          "name": "from",
          "type": "address"
        },
        {
          "internalType": "address",
          "name": "to",
          "type": "address"
        },
        {
          "internalType": "uint256",
          "name": "tokenId",
          "type": "uint256"
        }
      ],
      "name": "transferFrom",
      "outputs": [],
      "stateMutability": "nonpayable",
      "type": "function"
    }
  ],
  "bytecode": "0x60806040523480156200001157600080fd5b506040805180820182526011815270283937a1b430b4b71029b7b63aba34b7b760791b60208083019182528351808501909452600384526250525360e81b908401528151919291620000669160009162000097565b5080516200007c90600190602084019062000097565b5050600980546001600160a01b03191633179055506200017a565b828054620000a5906200013d565b90600052602060002090601f016020900481019282620000c9576000855562000114565b82601f10620000e457805160ff191683800117855562000114565b8280016001018555821562000114579182015b8281111562000114578251825591602001919060010190620000f7565b506200012292915062000126565b5090565b5b8082111562000122576000815560010162000127565b600181811c908216806200015257607f821691505b602082108114156200017457634e487b7160e01b600052602260045260246000fd5b50919050565b611ea1806200018a6000396000f3fe6080604052600436106101295760003560e01c8063599e2364116100a5578063a22cb46511610074578063c87b56dd11610059578063c87b56dd14610394578063cb1021e9146103b4578063e985e9c5146103d657600080fd5b8063a22cb46514610354578063b88d4fde1461037457600080fd5b8063599e23641461026e5780636352211e146102ff57806370a082311461031f57806395d89b411461033f57600080fd5b8063095ea7b3116100fc57806323b872dd116100e157806323b872dd1461021757806342842e0e14610237578063519ee19e1461025757600080fd5b8063095ea7b3146101d257806317d70f7c146101f257600080fd5b806301ffc9a71461012e578063056b01ce1461016357806306fdde0314610178578063081812fc1461019a575b600080fd5b34801561013a57600080fd5b5061014e610149366004611b69565b61041f565b60405190151581526020015b60405180910390f35b610176610171366004611ba1565b6104bc565b005b34801561018457600080fd5b5061018d610626565b60405161015a9190611d24565b3480156101a657600080fd5b506101ba6101b5366004611bf7565b6106b8565b6040516001600160a01b03909116815260200161015a565b3480156101de57600080fd5b506101766101ed366004611b40565b610752565b3480156101fe57600080fd5b506007546102099081565b60405190815260200161015a565b34801561022357600080fd5b50610176610232366004611a52565b610884565b34801561024357600080fd5b50610176610252366004611a52565b61090b565b34801561026357600080fd5b506008546102099081565b34801561027a57600080fd5b506102c9610289366004611bf7565b600a602052600090815260409020805460018201546002830154600390930154919290916001600160a01b0391821691811690600160a01b900460ff1685565b6040805195865260208601949094526001600160a01b03928316938501939093521660608301521515608082015260a00161015a565b34801561030b57600080fd5b506101ba61031a366004611bf7565b610926565b34801561032b57600080fd5b5061020961033a366004611a06565b6109b1565b34801561034b57600080fd5b5061018d610a4b565b34801561036057600080fd5b5061017661036f366004611b06565b610a5a565b34801561038057600080fd5b5061017661038f366004611a8d565b610a69565b3480156103a057600080fd5b5061018d6103af366004611bf7565b610af7565b3480156103c057600080fd5b506103c9610c8a565b60405161015a9190611ca6565b3480156103e257600080fd5b5061014e6103f1366004611a20565b6001600160a01b03918216600090815260056020908152604080832093909416825291909152205460ff1690565b60006001600160e01b031982167f80ac58cd00000000000000000000000000000000000000000000000000000000148061048257506001600160e01b031982167f5b5e139f00000000000000000000000000000000000000000000000000000000145b806104b657507f01ffc9a7000000000000000000000000000000000000000000000000000000006001600160e01b03198316145b92915050565b60006104c760075490565b90506104d7600780546001019055565b6104e13382610e17565b6104eb8184610e31565b6040805160a0810182528281526020808201858152338385018181523060608087018281526000608089018181528b8252600a89528a822099518a55965160018a0155935160028901805473ffffffffffffffffffffffffffffffffffffffff19166001600160a01b039283161790559051600390980180549651989091167fffffffffffffffffffffff00000000000000000000000000000000000000000090961695909517600160a01b971515979097029690961790935585518781529384018890528386015293519093927fa8c25acea3cf3e5008cf415deec1a51eecefd88e6712ff26f463c700bf39a3c0928290030190a36105ec333083610eda565b60405181815233907f647b02b78925d2df82f05940db18f6f5d1da1382ccbf534bc218cf3420e613fc9060200160405180910390a2505050565b60606000805461063590611da6565b80601f016020809104026020016040519081016040528092919081815260200182805461066190611da6565b80156106ae5780601f10610683576101008083540402835291602001916106ae565b820191906000526020600020905b81548152906001019060200180831161069157829003601f168201915b5050505050905090565b6000818152600260205260408120546001600160a01b03166107365760405162461bcd60e51b815260206004820152602c60248201527f4552433732313a20617070726f76656420717565727920666f72206e6f6e657860448201526b34b9ba32b73a103a37b5b2b760a11b60648201526084015b60405180910390fd5b506000908152600460205260409020546001600160a01b031690565b600061075d82610926565b9050806001600160a01b0316836001600160a01b031614156107e75760405162461bcd60e51b815260206004820152602160248201527f4552433732313a20617070726f76616c20746f2063757272656e74206f776e6560448201527f7200000000000000000000000000000000000000000000000000000000000000606482015260840161072d565b336001600160a01b0382161480610803575061080381336103f1565b6108755760405162461bcd60e51b815260206004820152603860248201527f4552433732313a20617070726f76652063616c6c6572206973206e6f74206f7760448201527f6e6572206e6f7220617070726f76656420666f7220616c6c0000000000000000606482015260840161072d565b61087f83836110b4565b505050565b61088e338261112f565b6109005760405162461bcd60e51b815260206004820152603160248201527f4552433732313a207472616e736665722063616c6c6572206973206e6f74206f60448201527f776e6572206e6f7220617070726f766564000000000000000000000000000000606482015260840161072d565b61087f838383610eda565b61087f83838360405180602001604052806000815250610a69565b6000818152600260205260408120546001600160a01b0316806104b65760405162461bcd60e51b815260206004820152602960248201527f4552433732313a206f776e657220717565727920666f72206e6f6e657869737460448201527f656e7420746f6b656e0000000000000000000000000000000000000000000000606482015260840161072d565b60006001600160a01b038216610a2f5760405162461bcd60e51b815260206004820152602a60248201527f4552433732313a2062616c616e636520717565727920666f7220746865207a6560448201527f726f206164647265737300000000000000000000000000000000000000000000606482015260840161072d565b506001600160a01b031660009081526003602052604090205490565b60606001805461063590611da6565b610a65338383611225565b5050565b610a73338361112f565b610ae55760405162461bcd60e51b815260206004820152603160248201527f4552433732313a207472616e736665722063616c6c6572206973206e6f74206f60448201527f776e6572206e6f7220617070726f766564000000000000000000000000000000606482015260840161072d565b610af1848484846112f4565b50505050565b6000818152600260205260409020546060906001600160a01b0316610b845760405162461bcd60e51b815260206004820152603160248201527f45524337323155524953746f726167653a2055524920717565727920666f722060448201527f6e6f6e6578697374656e7420746f6b656e000000000000000000000000000000606482015260840161072d565b60008281526006602052604081208054610b9d90611da6565b80601f0160208091040260200160405190810160405280929190818152602001828054610bc990611da6565b8015610c165780601f10610beb57610100808354040283529160200191610c16565b820191906000526020600020905b815481529060010190602001808311610bf957829003601f168201915b505050505090506000610c3460408051602081019091526000815290565b9050805160001415610c47575092915050565b815115610c79578082604051602001610c61929190611c3b565b60405160208183030381529060405292505050919050565b610c8284611372565b949350505050565b6060600080610c9860075490565b90506000610ca560085490565b610caf9083611d63565b905060008167ffffffffffffffff811115610cda57634e487b7160e01b600052604160045260246000fd5b604051908082528060200260200182016040528015610d3357816020015b6040805160a081018252600080825260208083018290529282018190526060820181905260808201528252600019909201910181610cf85790505b50905060005b83811015610e0e576000818152600a6020526040902060030154600160a01b900460ff16610dfc576000818152600a6020908152604091829020825160a0810184528154815260018201549281019290925260028101546001600160a01b0390811693830193909352600301549182166060820152600160a01b90910460ff16151560808201528251839087908110610de257634e487b7160e01b600052603260045260246000fd5b60200260200101819052508480610df890611de1565b9550505b80610e0681611de1565b915050610d39565b50949350505050565b610a65828260405180602001604052806000815250611468565b6000828152600260205260409020546001600160a01b0316610ebb5760405162461bcd60e51b815260206004820152602e60248201527f45524337323155524953746f726167653a2055524920736574206f66206e6f6e60448201527f6578697374656e7420746f6b656e000000000000000000000000000000000000606482015260840161072d565b6000828152600660209081526040909120825161087f928401906118db565b826001600160a01b0316610eed82610926565b6001600160a01b031614610f695760405162461bcd60e51b815260206004820152602560248201527f4552433732313a207472616e736665722066726f6d20696e636f72726563742060448201527f6f776e6572000000000000000000000000000000000000000000000000000000606482015260840161072d565b6001600160a01b038216610fe45760405162461bcd60e51b8152602060048201526024808201527f4552433732313a207472616e7366657220746f20746865207a65726f2061646460448201527f7265737300000000000000000000000000000000000000000000000000000000606482015260840161072d565b610fef6000826110b4565b6001600160a01b0383166000908152600360205260408120805460019290611018908490611d63565b90915550506001600160a01b0382166000908152600360205260408120805460019290611046908490611d37565b9091555050600081815260026020526040808220805473ffffffffffffffffffffffffffffffffffffffff19166001600160a01b0386811691821790925591518493918716917fddf252ad1be2c89b69c2b068fc378daa952ba7f163c4a11628f55a4df523b3ef91a4505050565b6000818152600460205260409020805473ffffffffffffffffffffffffffffffffffffffff19166001600160a01b03841690811790915581906110f682610926565b6001600160a01b03167f8c5be1e5ebec7d5bd14f71427d1e84f3dd0314c0f7b2291e5b200ac8c7c3b92560405160405180910390a45050565b6000818152600260205260408120546001600160a01b03166111a85760405162461bcd60e51b815260206004820152602c60248201527f4552433732313a206f70657261746f7220717565727920666f72206e6f6e657860448201526b34b9ba32b73a103a37b5b2b760a11b606482015260840161072d565b60006111b383610926565b9050806001600160a01b0316846001600160a01b031614806111fa57506001600160a01b0380821660009081526005602090815260408083209388168352929052205460ff165b80610c825750836001600160a01b0316611213846106b8565b6001600160a01b031614949350505050565b816001600160a01b0316836001600160a01b031614156112875760405162461bcd60e51b815260206004820152601960248201527f4552433732313a20617070726f766520746f2063616c6c657200000000000000604482015260640161072d565b6001600160a01b03838116600081815260056020908152604080832094871680845294825291829020805460ff191686151590811790915591519182527f17307eab39ab6107e8899845ad3d59bd9653f200f220920489ca2b5937696c31910160405180910390a3505050565b6112ff848484610eda565b61130b848484846114e6565b610af15760405162461bcd60e51b815260206004820152603260248201527f4552433732313a207472616e7366657220746f206e6f6e20455243373231526560448201527131b2b4bb32b91034b6b83632b6b2b73a32b960711b606482015260840161072d565b6000818152600260205260409020546060906001600160a01b03166113ff5760405162461bcd60e51b815260206004820152602f60248201527f4552433732314d657461646174613a2055524920717565727920666f72206e6f60448201527f6e6578697374656e7420746f6b656e0000000000000000000000000000000000606482015260840161072d565b600061141660408051602081019091526000815290565b905060008151116114365760405180602001604052806000815250611461565b806114408461163e565b604051602001611451929190611c3b565b6040516020818303038152906040525b9392505050565b611472838361178c565b61147f60008484846114e6565b61087f5760405162461bcd60e51b815260206004820152603260248201527f4552433732313a207472616e7366657220746f206e6f6e20455243373231526560448201527131b2b4bb32b91034b6b83632b6b2b73a32b960711b606482015260840161072d565b60006001600160a01b0384163b1561163357604051630a85bd0160e11b81526001600160a01b0385169063150b7a029061152a903390899088908890600401611c6a565b602060405180830381600087803b15801561154457600080fd5b505af1925050508015611574575060408051601f3d908101601f1916820190925261157191810190611b85565b60015b611619573d8080156115a2576040519150601f19603f3d011682016040523d82523d6000602084013e6115a7565b606091505b5080516116115760405162461bcd60e51b815260206004820152603260248201527f4552433732313a207472616e7366657220746f206e6f6e20455243373231526560448201527131b2b4bb32b91034b6b83632b6b2b73a32b960711b606482015260840161072d565b805181602001fd5b6001600160e01b031916630a85bd0160e11b149050610c82565b506001949350505050565b60608161167e57505060408051808201909152600181527f3000000000000000000000000000000000000000000000000000000000000000602082015290565b8160005b81156116a8578061169281611de1565b91506116a19050600a83611d4f565b9150611682565b60008167ffffffffffffffff8111156116d157634e487b7160e01b600052604160045260246000fd5b6040519080825280601f01601f1916602001820160405280156116fb576020820181803683370190505b5090505b8415610c8257611710600183611d63565b915061171d600a86611dfc565b611728906030611d37565b60f81b81838151811061174b57634e487b7160e01b600052603260045260246000fd5b60200101907effffffffffffffffffffffffffffffffffffffffffffffffffffffffffffff1916908160001a905350611785600a86611d4f565b94506116ff565b6001600160a01b0382166117e25760405162461bcd60e51b815260206004820181905260248201527f4552433732313a206d696e7420746f20746865207a65726f2061646472657373604482015260640161072d565b6000818152600260205260409020546001600160a01b0316156118475760405162461bcd60e51b815260206004820152601c60248201527f4552433732313a20746f6b656e20616c7265616479206d696e74656400000000604482015260640161072d565b6001600160a01b0382166000908152600360205260408120805460019290611870908490611d37565b9091555050600081815260026020526040808220805473ffffffffffffffffffffffffffffffffffffffff19166001600160a01b03861690811790915590518392907fddf252ad1be2c89b69c2b068fc378daa952ba7f163c4a11628f55a4df523b3ef908290a45050565b8280546118e790611da6565b90600052602060002090601f016020900481019282611909576000855561194f565b82601f1061192257805160ff191683800117855561194f565b8280016001018555821561194f579182015b8281111561194f578251825591602001919060010190611934565b5061195b92915061195f565b5090565b5b8082111561195b5760008155600101611960565b600067ffffffffffffffff8084111561198f5761198f611e3c565b604051601f8501601f19908116603f011681019082821181831017156119b7576119b7611e3c565b816040528093508581528686860111156119d057600080fd5b858560208301376000602087830101525050509392505050565b80356001600160a01b0381168114611a0157600080fd5b919050565b600060208284031215611a17578081fd5b611461826119ea565b60008060408385031215611a32578081fd5b611a3b836119ea565b9150611a49602084016119ea565b90509250929050565b600080600060608486031215611a66578081fd5b611a6f846119ea565b9250611a7d602085016119ea565b9150604084013590509250925092565b60008060008060808587031215611aa2578081fd5b611aab856119ea565b9350611ab9602086016119ea565b925060408501359150606085013567ffffffffffffffff811115611adb578182fd5b8501601f81018713611aeb578182fd5b611afa87823560208401611974565b91505092959194509250565b60008060408385031215611b18578182fd5b611b21836119ea565b915060208301358015158114611b35578182fd5b809150509250929050565b60008060408385031215611b52578182fd5b611b5b836119ea565b946020939093013593505050565b600060208284031215611b7a578081fd5b813561146181611e52565b600060208284031215611b96578081fd5b815161146181611e52565b60008060408385031215611bb3578182fd5b823567ffffffffffffffff811115611bc9578283fd5b8301601f81018513611bd9578283fd5b611be885823560208401611974565b95602094909401359450505050565b600060208284031215611c08578081fd5b5035919050565b60008151808452611c27816020860160208601611d7a565b601f01601f19169290920160200192915050565b60008351611c4d818460208801611d7a565b835190830190611c61818360208801611d7a565b01949350505050565b60006001600160a01b03808716835280861660208401525083604083015260806060830152611c9c6080830184611c0f565b9695505050505050565b602080825282518282018190526000919060409081850190868401855b82811015611d17578151805185528681015187860152858101516001600160a01b03908116878701526060808301519091169086015260809081015115159085015260a09093019290850190600101611cc3565b5091979650505050505050565b6020815260006114616020830184611c0f565b60008219821115611d4a57611d4a611e10565b500190565b600082611d5e57611d5e611e26565b500490565b600082821015611d7557611d75611e10565b500390565b60005b83811015611d95578181015183820152602001611d7d565b83811115610af15750506000910152565b600181811c90821680611dba57607f821691505b60208210811415611ddb57634e487b7160e01b600052602260045260246000fd5b50919050565b6000600019821415611df557611df5611e10565b5060010190565b600082611e0b57611e0b611e26565b500690565b634e487b7160e01b600052601160045260246000fd5b634e487b7160e01b600052601260045260246000fd5b634e487b7160e01b600052604160045260246000fd5b6001600160e01b031981168114611e6857600080fd5b5056fea264697066735822122050e4e08cfbaba1ff6983eb0db25076e1f7e81217fbfd3975d3166198701163d564736f6c63430008040033",
  "linkReferences": {},
  "deployedLinkReferences": {}
}